:1000000089C00000A2C00000A0C000009EC0000087
:100010009CC000009AC0000098C0000096C000007C
:1000200094C0000092C0000090C00000D9C300003E
:100030008CC000008AC0000088C0000086C000009C
:1000400084C0000082C0000080C000007EC00000AC
:100050007CC000007AC0000078C0000032C10000FF
:1000600074C0000072C0000070C000006EC00000CC
:100070006CC000002203410072006400750069003A
:100080006E006F0020004A006F007900730074005A
:10009000690063006B0000001003410072006400FF
:1000A000750069006E006F00000004030904090276
:1000B0002200010100C03209040000010300000019
:1000C0000921110100012232000705810308000AFD
:1000D0001201100100000008EB03432000000102A0
:1000E000000105010904A1010901A1000501093070
:1000F0000931159C2564750895028182C00509099E
:100100000209011500250175019502810275069508
:10011000018101C011241FBECFEFD2E0DEBFCDBFF1
:1001200011E0A0E0B1E0EEE7FFE002C005900D9223
:10013000AE30B107D9F711E0AEE0B1E001C01D92D9
:10014000A63AB107E1F747D018C75ACFE091980116
:10015000F09199018191F0939901E0939801E6590A
:10016000F14031F426E131E0309399012093980178
:100170002FB7F89490919A01915090939A012FBFC4
:100180000895CF93DF9384B7877F84BF28E10FB6AC
:10019000F89420936000109260000FBE80E190E020
:1001A0009093CD008093CC0086E08093CA0082E0DB
:1001B0008093C800C9ECD0E02883539A5A9A8AB138
:1001C00080638AB98BB180638BB9FFD288E9888359
:1001D000DF91CF910895D5DF2FB7F89486E191E0B4
:1001E0009093970180939601909399018093980141
:1001F0002FBF789480E091E0F5D5A0D480910E01D6
:1002000090910F01892BB1F380910E0190910F0114
:10021000019790930F0180930E0180910E019091B0
:100220000F01892B39F75D9AE5CF0895089580E095
:1002300091E0B5D5E2EEF0E080818460808308959E
:1002400080E091E08CC480910B0190910C010097AB
:1002500029F0019790930C0180930B0108950F935F
:100260001F93CF93DF93E9019FB7F89480919A0190
:100270009FBF843088F06ADF8093100167DF80932E
:10028000110164DF8093120161DF5D9880ED97E0DA
:1002900090930F0180930E018091100190911101B4
:1002A000A091120188839983AA8383E090E0F801EA
:1002B0009183808380E0DF91CF911F910F9108950A
:1002C00008951F920F920FB60F9211242F938F93C0
:1002D0009F93EF93FF938091CE009EB3943029F5C6
:1002E0002FB7F89490919A012FBF9038F1F0E091D8
:1002F0009601F09197018083E0919601F09197012A
:10030000CF01019690939701809396018659914071
:1003100021F486E191E0928381839FB7F8948091E4
:100320009A018F5F80939A019FBFFF91EF919F91F8
:100330008F912F910F900FBE0F901F901895292F1E
:10034000332723303105B1F04CF42130310509F465
:1003500039C02230310509F03AC007C021323105D9
:1003600039F12232310549F132C0E2E2F0E08EEAA1
:1003700090E031C099278130910561F0823091057C
:1003800081F0892B21F5EAEAF0E0E491F0E08AEAD5
:1003900090E021C0E8E9F0E0E491F0E088E990E045
:1003A0001AC0E4E7F0E0E491F0E084E790E013C0E5
:1003B000E9E0F0E080EC90E00EC0E2E3F0E082EEF5
:1003C00090E009C0E2E1F0E080ED90E004C0E0E000
:1003D000F0E080E090E0DA018D939C93CF010895E6
:1003E00028E030E040E003C04F5F220F331F2817A2
:1003F0003907D0F3842F8295807F08958093E90098
:10040000EBEEF0E0808181608083EDEEF0E0108221
:100410006093EC0040838091EE00881F8827881F3E
:1004200008951092F40080E08093E9001092F000AB
:100430001092E8001092ED009091EB009E7F909357
:10044000EB008F5F853081F7089580919E0187FDD5
:1004500005C08091E80080FF0DC010C08091E800C9
:1004600082FD04C08EB38111F9CF08958091E80018
:100470008B7707C08EB38111ECCF08958091E8008F
:100480008E778093E800089585E69091EC0090FFC8
:1004900005C09091E80090FF05C01BC09091E80056
:1004A00092FD17C09EB39923B1F09EB39530A9F089
:1004B0009091EB0095FD13C09091E10092FFE5CF84
:1004C0009091E1009B7F9093E1008150F1F684E0F0
:1004D000089580E0089582E0089583E0089581E022
:1004E0000895AF92BF92CF92DF92EF92FF920F9357
:1004F0001F93CF93DF931F92CDB7DEB7C82E8B012A
:100500007A019983C1DFD82E9981811127C0AC2C43
:10051000B92E1CC08091E80085FD11C08091E800D3
:100520008E778093E800E114F10421F4ADDF882395
:1005300069F010C0F70109958130C1F70DC0F501D0
:1005400081915F018093F10001501109011511059E
:1005500009F704C0D82E02C075E0D72E8D2D0F905C
:10056000DF91CF911F910F91FF90EF90DF90CF908F
:10057000BF90AF9008952091A4013091A501261756
:10058000370748F06115710539F42091E8002E779E
:100590002093E80001C0B901FC0190E029C08091DE
:1005A000E80083FD37C08091E80082FD2DC08EB346
:1005B000882391F18EB3853089F18091E80080FF26
:1005C00017C08091F20006C091919093F1006150A4
:1005D00071098F5F6115710511F08830A8F391E002
:1005E000883009F090E08091E8008E778093E800F1
:1005F00061157105A1F69111D2CF06C08EB3882383
:1006000059F08EB3853051F08091E80082FFF6CF2B
:1006100080E0089581E0089582E0089583E00895E0
:100620002091A4013091A5012617370748F06115E4
:10063000710539F42091E8002E772093E80001C07D
:10064000B9019C0190E02CC08091E80083FD3AC084
:100650008091E80082FD30C08EB38823A9F18EB36B
:100660008530A1F18091E80080FF1AC08091F200EE
:1006700009C0F9012F5F3F4FE491E093F100615011
:1006800071098F5F6115710511F0883090F391E069
:10069000883009F090E08091E8008E778093E80040
:1006A0006115710589F69111CFCF06C08EB38823ED
:1006B00059F08EB3853051F08091E80082FFF6CF7B
:1006C00080E0089581E0089582E0089583E0089530
:1006D0006115710529F42091E8002B772093E8003B
:1006E0009C0121C08091E80083FD2BC08EB388233C
:1006F00071F18EB3853039F18091E80082FFF2CF3D
:10070000F90107C08091F10081939F016150710947
:1007100029F09F018091F2008111F4CF8091E800CF
:100720008B778093E80061157105E1F68091E80010
:1007300080FD0BC08EB3882351F08EB38530B1F7A6
:1007400002C081E0089583E0089580E0089582E08A
:10075000089540D042D01EBA10929C0110929B0185
:1007600084E089BD89B5826089BD09B400FEFDCFF2
:100770008091D800982F9F779093D80080688093BD
:10078000D800809163008E7F809363008091D800B1
:100790008F7D8093D8008091E0008E7F8093E00071
:1007A0008091E1008E7F8093E1008091E200816082
:1007B0008093E2008091E100877F8093E100809147
:1007C000E20088608093E2000895C3DF81E08093B7
:1007D0009D0108951092E20008951092E10008959D
:1007E0001F920F920FB60F9211242F933F934F93A6
:1007F0005F936F937F938F939F93AF93BF93EF9389
:10080000FF938091E10080FF1BC08091E20080FF98
:1008100017C08091E1008E7F8093E1008091E2001B
:100820008E7F8093E2008091E20080618093E200FD
:100830008091D80080628093D80019BC1EBAF6DC83
:100840008091E10084FF29C08091E20084FF25C0EF
:1008500084E089BD89B5826089BD09B400FEFDCF01
:100860008091D8008F7D8093D8008091E1008F7EA9
:100870008093E1008091E2008F7E8093E20080917E
:10088000E20081608093E20080919C01882311F056
:1008900084E001C081E08EBBC8DC8091E10083FF71
:1008A00022C08091E20083FF1EC08091E100877F1B
:1008B0008093E10082E08EBB10929C018091E10068
:1008C0008E7F8093E1008091E2008E7F8093E20032
:1008D0008091E20080618093E200A3DD42E060E06D
:1008E00080E08CDD2AD18091E10082FF0AC08091F6
:1008F000E20082FF06C08091E1008B7F8093E100DF
:10090000A2DCFF91EF91BF91AF919F918F917F9169
:100910006F915F914F913F912F910F900FBE0F906C
:100920001F9018950F931F93CF93DF9300D0CDB7EF
:10093000DEB7EEE9F1E08091F100819381E0E63AE3
:10094000F807C9F780919E0190919F01953009F4B5
:1009500072C038F4913089F170F0933009F0E4C03E
:100960002CC0983009F4A8C0993009F4B7C096306B
:1009700009F0DAC082C0803821F0823809F0D4C092
:1009800003C090919B010FC08091A2019091A3019F
:10099000877099278093E9009091EB0095FB992748
:1009A00090F91092E9008091E800877F8093E80039
:1009B0009093F1001092F1008AC0882319F08230E0
:1009C00009F0B2C08F71823009F09FC08091A00100
:1009D00081112BC08091A2019091A301877099276A
:1009E000009709F492C08093E9002091EB0020FF6A
:1009F0008CC020919F01233021F48091EB00806214
:100A000012C09091EB0090619093EB0021E030E0F8
:100A100001C0220F8A95EAF72093EA001092EA00BB
:100A20008091EB0088608093EB001092E900809148
:100A3000E800877F4FC0811177C00091A00110911D
:100A4000A1018091E800877F8093E800FEDC04C06C
:100A50008EB3882309F459C08091E80080FFF8CF55
:100A6000C8018F779927009711F023E001C022E099
:100A70002EBB80688093E30048C08058823008F025
:100A800053C0AE014F5F5F4F6091A2018091A00102
:100A90009091A10154DC0097C1F12091E800277FDB
:100AA0002093E800BC0189819A81BADD8091E80039
:100AB0008B778093E80029C08038B1F58091E800F9
:100AC000877F8093E80080919C018093F100809162
:100AD000E8008E778093E800B8DC17C0811124C04D
:100AE0009091A001923088F48091E800877F8093F4
:100AF000E80090939C01A9DC80919C01882311F06F
:100B000084E001C083E08EBB92DB8091E80083FF2C
:100B10000DC08091EB0080628093EB008091E80033
:100B2000877F8093E80002C08BDBEFCF0F900F90A0
:100B3000DF91CF911F910F9108950895CF938EB3B8
:100B4000882359F0C091E900C7701092E9008091A4
:100B5000E80083FDE7DEC093E900CF9108956F922E
:100B60007F928F929F92AF92BF92CF92DF92EF923D
:100B7000FF920F931F93CF93DF9300D01F92CDB7B7
:100B8000DEB77C01ADB6BEB68091E80083FFF0C051
:100B9000F701808190E02091A2013091A3012817F4
:100BA000390709F0E5C080919F01833009F492C0B4
:100BB00030F4813071F0823009F0DAC0C1C08A307F
:100BC00009F4A7C08B3009F492C0893009F0D0C075
:100BD00049C080919E01813A09F0CAC08DB69EB687
:100BE0008091E800877F8093E8001A8219828091C3
:100BF000A0011091A1018B83F70147818DB79EB7AA
:100C0000841B91090FB6F8949EBF0FBE8DBFCDB661
:100C1000DEB6EFEFCE1ADE0A360150E060E070E09B
:100C2000C601A4D1412F41508E010F5F1F4F960185
:100C3000BE016D5F7F4FC70112DBF7012581368151
:100C40002115310529F0478150E0B601C90185D150
:100C50001092E90069817A81C3018DDC8091E800FE
:100C60008B772EC080919E01813209F081C08DB6B4
:100C70009EB68091E800877F8093E8000091A401F0
:100C80001091A5017090A0016090A1018DB79EB751
:100C9000801B910B0FB6F8949EBF0FBE8DBFCDB6D3
:100CA000DEB6EFEFCE1ADE0AB801C60111DD462D21
:100CB00041509601672DC70103DB8091E8008E77D4
:100CC0008093E800882D992D0FB6F8949EBF0FBE33
:100CD0008DBF4EC080919E01813A09F049C080913C
:100CE000E800877F8093E800F701808539C0809114
:100CF0009E018132E9F58091E800877F8093E800CA
:100D00009091A00181E0911101C080E0F7018087FE
:100D10002EC080919E01813259F58091E800877F35
:100D20008093E8008091A0019091A101882736E08E
:100D3000969587953A95E1F7F7019287818717C0D5
:100D400080919E01813AA1F48091E800877F809391
:100D5000E800F70181859285969587959695879508
:100D60008093F1008091E8008E778093E8006DDB3E
:100D70000FB6F894BEBE0FBEADBE0F900F900F9091
:100D8000DF91CF911F910F91FF90EF90DF90CF9067
:100D9000BF90AF909F908F907F906F900895CF936A
:100DA000DF93FC010896DC0185E0ED0119928A953C
:100DB000E9F781E0808784EF91E092878187228143
:100DC00033818481882311F0C4E001C0C0E0D18167
:100DD000C90106DB4C2F482B426061EC8D2FDF915F
:100DE000CF910CCB4F925F926F927F928F929F9296
:100DF000AF92BF92CF92DF92EF92FF920F931F9329
:100E0000CF93DF9300D01F92CDB7DEB77C01ADB694
:100E1000BEB68EB3843009F07AC0F7018181809329
:100E2000E9008091E80085FF72C06DB67EB647810B
:100E30008DB79EB7841B91090FB6F8949EBF0FBE65
:100E40008DBFCDB6DEB6EFEFCE1ADE0A1B821A8258
:100E50001982460150E060E070E0C60187D08E0143
:100E60000F5F1F4F960140E0BE016D5F7F4FC701CE
:100E7000F6D9482EF70121853285232B31F001E088
:100E800010E023853485232B11F000E010E0F701FA
:100E9000C580D680C114D10489F049815A81B60138
:100EA000C4014ED055245394009709F4512CF701F6
:100EB000478150E0B401C60150D001C0512C2981B6
:100EC0003A81232BE9F0411004C0511002C000FF09
:100ED00017C0F7012185328534872387818180936C
:100EE000E9008B8181118093F10069817A8140E072
:100EF00050E0C401F6DA8091E8008E778093E80034
:100F0000862D972D0FB6F8949EBF0FBE8DBF0FB6DE
:100F1000F894BEBE0FBEADBE0F900F900F90DF9144
:100F2000CF911F910F91FF90EF90DF90CF90BF90E6
:100F3000AF909F908F907F906F905F904F900895AB
:100F4000FB01DC0104C08D910190801921F4415016
:100F50005040C8F7881B990B0895FB01DC0102C0C3
:100F600001900D9241505040D8F70895DC0101C026
:0E0F70006D9341505040E0F70895F894FFCF84
:0E0F7E00000108000013010300000000000045
:00000001FF
