:100000008EC00000A7C00000A5C00000A3C0000073
:10001000A1C000009FC000009DC000009BC0000068
:1000200099C0000097C0000095C0000094C4000073
:1000300091C000008FC000008DC000008BC0000088
:1000400089C0000087C0000085C0000083C0000098
:1000500081C000007FC000007DC00000DAC1000048
:1000600079C0000077C0000075C0000073C00000B8
:1000700071C000001A03410072006400750069003D
:100080006E006F0020004D00490044004900000050
:100090001003410072006400750069006E006F007B
:1000A00000000403090409026500020100C03209CE
:1000B0000400000001010000092401000109000101
:1000C00001090401000201030000072401000141AD
:1000D0000006240201010006240202020009240392
:1000E00001030102010009240302040101010009C6
:1000F00005010240000000000525010101090582FB
:10010000024000000000052501010312011001005A
:10011000000008EB03482000000102000100112448
:100120001FBECFEFD2E0DEBFCDBF11E0A0E0B1E057
:10013000E2EAFEE002C005900D92AA30B107D9F7BD
:1001400012E0AAE0B1E001C01D92A132B107E1F7CF
:100150005ED0A5C655CF9BB18095906389238BB99E
:1001600008952FB7F894FC0180812FBF0895BF92A6
:10017000CF92DF92EF92FF920F931F93CF93DF9373
:1001800084B7877F84BF28E10FB6F894209360007E
:10019000109260000FBE8CECC82ED12C88E090E04D
:1001A000F601918380839AECE92EF12C36E0B32E90
:1001B000F701B08208EC10E0F8011082C9ECD0E041
:1001C0002883539A5A9A8AB180638AB98BB1806323
:1001D0008BB9B6D384E085BD1882F8011082F7018F
:1001E000108280E190E0F60191838083F701B08274
:1001F00082E0F801808388E98883DF91CF911F91A5
:100200000F91FF90EF90DF90CF90BF900895CF9324
:10021000DF93CDB7DEB728970FB6F894DEBF0FBED9
:10022000CDBFA5DF2FB7F8948FE891E0909310022F
:1002300080930F0290931202809311022FBF2FB769
:10024000F8948AE091E090938B0180938A019093D7
:100250008D0180938C012FBF80E27DDF7894E12CAB
:10026000F12C00E010E06E0125E0C20ED11C5AE036
:10027000852E51E0952E60E8662E712C7FE8A72E22
:1002800071E0B72E8EE891E06CDF8430C0F1DE01C2
:100290001196E0918C01F0918D019191F0938D0177
:1002A000E0938C01EA58F14021F490928D01809204
:1002B0008C012FB7F89480918E01815080938E012C
:1002C0002FBF9D93AC15BD0521F79981892F82958C
:1002D0008F708D838A8181508F70907F892B8E8360
:1002E0008B818F838C818887B60180E091E080D5F7
:1002F00080E091E09FD55D9800E117E203C0011511
:10030000110521F00150110909F45D9AB60180E050
:1003100091E0A6D5882309F440C083E192E021DF73
:100320009301281B310924303105B0F18D8182956C
:10033000807F89838E818F708F5F8A838F818B838B
:1003400088858C83FE0131961EC08191A0910F0299
:10035000B09110028C9380910F029091100201963F
:100360009093100280930F028F50924021F4B0922C
:100370001002A0920F029FB7F894809113028F5F32
:10038000809313029FBFEC15FD05F9F65C9840E1E0
:10039000E42E47E2F42E04C05C98E114F10429F045
:1003A00081E0E81AF10809F45C9A83E192E0D9DE71
:1003B0008823F1F0E0911102F09112029191F093F3
:1003C0001202E0931102EF50F24021F4B0921202B7
:1003D000A09211022FB7F89480911302815080935C
:1003E00013022FBF8091C80085FFFCCF9093CE00F1
:1003F000B4D448CF80E1AFCE80E2ADCE80E0ABDEBA
:1004000080E091E0BCD4811102C080E3A4CE0895C5
:1004100008951F920F920FB60F9211242F933F93BE
:100420004F935F936F937F938F939F93AF93BF93FC
:10043000CF93EF93FF93C091CE0080911802843048
:1004400019F58EE891E08DDE8038F1F0E0918A01B7
:10045000F0918B01C083E0918A01F0918B01CF0173
:10046000019690938B0180938A018A58914021F4E0
:100470008AE091E0928381839FB7F89480918E0106
:100480008F5F80938E019FBFFF91EF91CF91BF91BE
:10049000AF919F918F917F916F915F914F913F911C
:1004A0002F910F900FBE0F901F901895292F332773
:1004B0002230310539F02330310549F02130310542
:1004C00021F128C0E5E6F0E086EA90E027C0992710
:1004D0008130910561F08230910581F0892BD1F452
:1004E000E2EAF0E0E491F0E082EA90E017C0E0E9AF
:1004F000F0E0E491F0E080E990E010C0E4E7F0E0A3
:10050000E491F0E084E790E009C0E2E1F0E08BE004
:1005100091E004C0E0E0F0E080E090E0DA018D934B
:100520009C93CF01089528E030E040E003C04F5F86
:10053000220F331F28173907D0F3842F8295807F2D
:1005400008958093E900EBEEF0E080818160808384
:10055000EDEEF0E010826093EC0040838091EE00BD
:10056000881F8827881F08951092F40080E08093E8
:10057000E9001092F0001092E8001092ED009091C6
:10058000EB009E7F9093EB008F5F853081F708959D
:100590008091190287FD05C08091E80080FF0EC0A0
:1005A00012C08091E80082FD05C08091180281117F
:1005B000F8CF08958091E8008B7708C080911802E9
:1005C0008111EACF08958091E8008E778093E8004A
:1005D000089585E69091EC0090FF05C09091E800A9
:1005E00090FF05C01DC09091E80092FD19C0909148
:1005F00018029923B9F0909118029530A9F09091C2
:10060000EB0095FD13C09091E10092FFE3CF909134
:10061000E1009B7F9093E1008150E1F684E0089532
:1006200080E0089582E0089583E0089581E00895D0
:10063000AF92BF92CF92DF92EF92FF920F931F93F0
:10064000CF93DF931F92CDB7DEB7C82E8B017A010F
:100650009983BFDFD82E9981811127C0AC2CB92E88
:100660001CC08091E80085FD11C08091E8008E7764
:100670008093E800E114F10421F4ABDF882369F0F2
:1006800010C0F70109958130C1F70DC0F5018191C6
:100690005F018093F100015011090115110509F75F
:1006A00004C0D82E02C075E0D72E8D2D0F90DF919B
:1006B000CF911F910F91FF90EF90DF90CF90BF905F
:1006C000AF900895AF92BF92CF92DF92EF92FF92D8
:1006D0000F931F93CF93DF931F92CDB7DEB7C82E32
:1006E0008B017A01998375DFD82E9981811127C0FA
:1006F000AC2CB92E1CC08091E80085FD11C0809102
:10070000E8008B778093E800E114F10421F461DFC5
:10071000882369F010C0F70109958130C1F70DC039
:100720008091F100F50181935F01015011090115DC
:10073000110509F704C0D82E02C015E0D12E8D2D69
:100740000F90DF91CF911F910F91FF90EF90DF906D
:10075000CF90BF90AF90089520911F02309120025A
:100760002617370748F06115710539F42091E80024
:100770002E772093E80001C0B901FC0190E02BC066
:100780008091E80083FD3BC08091E80082FD31C08C
:10079000809118028823A9F180911802853099F17F
:1007A0008091E80080FF17C08091F20006C091910F
:1007B0009093F100615071098F5F6115710511F01F
:1007C0008830A8F391E0883009F090E08091E8004B
:1007D0008E778093E8006115710591F69111D0CF65
:1007E00008C080911802882361F08091180285303A
:1007F00051F08091E80082FFF4CF80E0089581E01D
:10080000089582E0089583E0089520911F023091B9
:1008100020022617370748F06115710539F4209139
:10082000E8002E772093E80001C0B9019C0190E018
:100830002EC08091E80083FD3EC08091E80082FDDB
:1008400034C0809118028823C1F18091180285304C
:10085000B1F18091E80080FF1AC08091F20009C0D8
:10086000F9012F5F3F4FE491E093F100615071096E
:100870008F5F6115710511F0883090F391E0883039
:1008800009F090E08091E8008E778093E800611590
:10089000710579F69111CDCF08C080911802882397
:1008A00061F080911802853051F08091E80082FF5C
:1008B000F4CF80E0089581E0089582E0089583E018
:1008C000089543D045D0109218021092160210924B
:1008D00015021092140284E089BD89B5826089BD39
:1008E00009B400FEFDCF8091D800982F9F77909398
:1008F000D80080688093D800809163008E7F8093B9
:1009000063008091D8008F7D8093D8008091E000B3
:100910008E7F8093E0008091E1008E7F8093E100E4
:100920008091E20081608093E2008091E100877F06
:100930008093E1008091E20088608093E200089556
:10094000C0DF81E08093170208951092E2000895BD
:100950001092E10008951F920F920FB60F9211248A
:100960002F933F934F935F936F937F938F939F93B7
:10097000AF93BF93EF93FF938091E10080FF1CC082
:100980008091E20080FF18C08091E1008E7F80930B
:10099000E1008091E2008E7F8093E2008091E2008E
:1009A00080618093E2008091D80080628093D800BB
:1009B00019BC1092180220DD8091E10084FF2AC04A
:1009C0008091E20084FF26C084E089BD89B5826001
:1009D00089BD09B400FEFDCF8091D8008F7D809342
:1009E000D8008091E1008F7E8093E1008091E20049
:1009F0008F7E8093E2008091E20081608093E2002C
:100A000080911602882311F084E001C081E0809378
:100A10001802F0DC8091E10083FF23C08091E200A6
:100A200083FF1FC08091E100877F8093E10082E017
:100A300080931802109216028091E1008E7F8093BD
:100A4000E1008091E2008E7F8093E2008091E200DD
:100A500080618093E20088DD42E060E080E071DD4B
:100A60007BD18091E10082FF0AC08091E20082FF89
:100A700006C08091E1008B7F8093E1006DD1FF91F2
:100A8000EF91BF91AF919F918F917F916F915F9106
:100A90004F913F912F910F900FBE0F901F9018957F
:100AA0000F931F93CF93DF93CDB7DEB7AC970FB6FD
:100AB000F894DEBF0FBECDBFE9E1F2E08091F10016
:100AC000819322E0E132F207C9F7809119029091F7
:100AD0001A02953009F484C038F49130B1F170F005
:100AE000933009F02CC131C0983009F4EFC099302F
:100AF00009F4FEC0963009F022C196C0803821F07A
:100B0000823809F01CC108C080911402909115022E
:100B1000992389F082600FC080911D0290911E027E
:100B2000877099278093E9008091EB0085FB8827E7
:100B300080F91092E9009091E800977F9093E80087
:100B40008093F1001092F100CCC0882319F082301C
:100B500009F0F5C08F7121F0823009F0E1C00BC0BF
:100B600080911B02813009F0DBC0933009F080E0F6
:100B7000809315022FC080911B0281112BC08091A0
:100B80001D0290911E0287709927009709F4C8C032
:100B90008093E9002091EB0020FFC2C020911A024F
:100BA000233021F48091EB00806212C09091EB0021
:100BB00090619093EB0021E030E001C0220F8A9514
:100BC000EAF72093EA001092EA008091EB00886037
:100BD0008093EB001092E9008091E800877F84C049
:100BE0008111ADC000911B0210911C028091E800A0
:100BF000877F8093E800CCDC05C0809118028823B1
:100C000009F48EC08091E80080FFF7CFC8018F778C
:100C10009927009711F023E001C022E020931802E9
:100C200080688093E3007CC08058823008F087C0E1
:100C300080911B0290911C028C3D23E0920779F574
:100C400083E08A838AE289833FB7F894DE011396B2
:100C500080E09EE041E2E92FF0E040935700E4910C
:100C600080FF03C0E295EF709F5FEF702E2F205D35
:100C70002A3308F0295F2C9311961C921197129633
:100C80008F5F843141F73FBF8091E800877F809379
:100C9000E8006AE270E0CE0101965EDD11C0AE01AF
:100CA000455D5F4F60911D0201DC0097C9F1209105
:100CB000E800277F2093E800BC018BA59CA5A5DD5B
:100CC0008091E8008B778093E8002AC08038B9F5DE
:100CD0008091E800877F8093E800809116028093DE
:100CE000F1008091E8008E778093E80051DC18C015
:100CF000811125C090911B02923090F48091E80000
:100D0000877F8093E8009093160242DC8091160260
:100D1000882311F084E001C083E0809318026EDB29
:100D20008091E80083FF0DC08091EB00806280938A
:100D3000EB008091E800877F8093E80002C068DBC9
:100D4000EFCFAC960FB6F894DEBF0FBECDBFDF91EC
:100D5000CF911F910F9108950895CF93809118021C
:100D6000882359F0C091E900C7701092E900809182
:100D7000E80083FD95DEC093E900CF9108950F93BD
:100D80001F93CF93DF93EC011981111105C01D81D1
:100D9000111115C081E027C02A813B818C818823F5
:100DA00011F004E001C000E0C901BDDB402F482B79
:100DB000426061E8812FC5DB8111E9CF14C02E812B
:100DC0003F818885882311F0C4E001C0C0E0C901DB
:100DD000AADB4C2F482B426060E8812FDF91CF9136
:100DE0001F910F91AECBDF91CF911F910F9108957D
:100DF000FC01CB01209118022430D1F421812093F1
:100E0000E9002091E80025FD02C080E0089540E05F
:100E100050E064E070E00CDC81110BC09091E800C0
:100E200095FDF3CF9091E8009E779093E8000895A8
:100E300082E0089520911802243071F4FC01818130
:100E40008093E9008091F200882341F08091E800CE
:100E50008E778093E800BDCB82E0089580E008950E
:100E6000FC01CB0120911802243011F080E008959C
:100E700025812093E9002091E80025FFF7CF40E08D
:100E800050E064E070E01EDC8091E80085FD05C064
:100E90008091E8008B778093E80081E00895F894D2
:020EA000FFCF82
:0A0EA20001024000000140000000C2
:00000001FF
