:1000000082C000009BC0000099C0000097C00000A3
:1000100095C0000093C0000091C000008FC0000098
:100020008DC000008BC0000089C00000A6C3000086
:1000300085C0000083C0000081C000007FC00000B8
:100040007DC000007BC0000079C0000077C00000C8
:1000500075C0000073C0000071C0000008C100003E
:100060006DC000006BC0000069C0000067C00000E8
:1000700065C0000014034D006F007500730065003B
:10008000200030002E0031000000100341007200FB
:100090006400750069006E006F000000040309042D
:1000A00009022200010100C06409040000010301EB
:1000B0000200092111010001223200070581030815
:1000C000000A1201100100000008EB0341200000AB
:1000D0000102000105010902A1010901A100950326
:1000E00075010509190129031500250181029501F2
:1000F00075058101750895020501093009311581E1
:10010000257F8106C0C011241FBECFEFD2E0DEBF25
:10011000CDBF11E0A0E0B1E0E2E1FFE002C0059058
:100120000D92AE30B107D9F711E0AEE0B1E001C0F9
:100130001D92A33AB107E1F742D0E9C661CFE09141
:100140009601F09197018191F0939701E0939601C8
:10015000E459F14031F424E131E0309397012093E8
:1001600096012FB7F894909198019150909398012F
:100170002FBF0895CF93DF9384B7877F84BF28E193
:100180000FB6F89420936000109260000FBE87E6CF
:1001900090E09093CD008093CC0086E08093CA00DD
:1001A0001092C800C9ECD0E02883539A5A9ADAD248
:1001B00084E085BD88E98883DF91CF910895DADFF7
:1001C0002FB7F89484E191E0909395018093940186
:1001D00090939701809396012FBF78949FB7F894DE
:1001E000809198019FBF843068F0A9DF182FA7DFA6
:1001F000D82FA5DFC82FA3DF10930E01D0930F01D6
:10020000C093100180E091E0B7D562D4E7CF0895A4
:10021000089580E091E08DD5E2EEF0E08081846089
:100220008083089580E091E064C480910B019091F7
:100230000C01009729F0019790930C0180930B011A
:1002400008950F931F9380910E0190910F01A0913B
:100250001001F90180839183A28383E090E0F8018B
:100260009183808380E01F910F91089508951F92DC
:100270000F920FB60F9211242F938F939F93EF93AA
:10028000FF938091CE009EB39430F1F4E0919401FD
:10029000F09195018083E0919401F0919501CF0157
:1002A000019690939501809394018459914021F493
:1002B00084E191E0928381839FB7F89480919801C3
:1002C0008F5F809398019FBFFF91EF919F918F91D6
:1002D0002F910F900FBE0F901F901895292F332745
:1002E00023303105B1F04CF42130310509F439C027
:1002F0002230310509F03AC007C02132310539F109
:100300002232310549F132C0E2E2F0E080EA90E0C9
:1003100031C099278130910561F08230910581F0DB
:10032000892B21F5ECE9F0E0E491F0E08CE990E034
:1003300021C0EAE8F0E0E491F0E08AE890E01AC039
:10034000E4E7F0E0E491F0E084E790E013C0E9E056
:10035000F0E082EB90E00EC0E2E3F0E084ED90E0AC
:1003600009C0E2E1F0E082EC90E004C0E0E0F0E0FF
:1003700080E090E0DA018D939C93CF01089528E00E
:1003800030E040E003C04F5F220F331F28173907CA
:10039000D0F3842F8295807F08958093E900EBEE5F
:1003A000F0E0808181608083EDEEF0E01082609368
:1003B000EC0040838091EE00881F8827881F0895F5
:1003C0001092F40080E08093E9001092F000109207
:1003D000E8001092ED009091EB009E7F9093EB006F
:1003E0008F5F853081F7089580919B0187FD05C05F
:1003F0008091E80080FF0DC010C08091E80082FD70
:1004000004C08EB38111F9CF08958091E8008B77F5
:1004100007C08EB38111ECCF08958091E8008E77EC
:100420008093E800089585E69091EC0090FF05C068
:100430009091E80090FF05C01BC09091E80092FDEC
:1004400017C09EB39923B1F09EB39530A9F0909157
:10045000EB0095FD13C09091E10092FFE5CF9091E4
:10046000E1009B7F9093E1008150F1F684E00895D4
:1004700080E0089582E0089583E0089581E0089582
:10048000AF92BF92CF92DF92EF92FF920F931F93A2
:10049000CF93DF931F92CDB7DEB7C82E8B017A01C1
:1004A0009983C1DFD82E9981811127C0AC2CB92E38
:1004B0001CC08091E80085FD11C08091E8008E7716
:1004C0008093E800E114F10421F4ADDF882369F0A2
:1004D00010C0F70109958130C1F70DC0F501819178
:1004E0005F018093F100015011090115110509F711
:1004F00004C0D82E02C075E0D72E8D2D0F90DF914D
:10050000CF911F910F91FF90EF90DF90CF90BF9010
:10051000AF9008952091A1013091A20126173707CD
:1005200048F06115710539F42091E8002E77209389
:10053000E80001C0B901FC0190E029C08091E80009
:1005400083FD37C08091E80082FD2DC08EB38823E3
:1005500091F18EB3853089F18091E80080FF17C05A
:100560008091F20006C091919093F1006150710961
:100570008F5F6115710511F08830A8F391E0883024
:1005800009F090E08091E8008E778093E800611593
:100590007105A1F69111D2CF06C08EB3882359F010
:1005A0008EB3853051F08091E80082FFF6CF80E075
:1005B000089581E0089582E0089583E008952091F0
:1005C000A1013091A2012617370748F06115710586
:1005D00039F42091E8002E772093E80001C0B9019A
:1005E0009C0190E02CC08091E80083FD3AC080918E
:1005F000E80082FD30C08EB38823A9F18EB3853028
:10060000A1F18091E80080FF1AC08091F20009C03A
:10061000F9012F5F3F4FE491E093F10061507109C0
:100620008F5F6115710511F0883090F391E088308B
:1006300009F090E08091E8008E778093E8006115E2
:10064000710589F69111CFCF06C08EB3882359F07A
:100650008EB3853051F08091E80082FFF6CF80E0C4
:10066000089581E0089582E0089583E0089561157A
:10067000710529F42091E8002B772093E8009C0174
:1006800021C08091E80083FD2BC08EB3882371F1D7
:100690008EB3853039F18091E80082FFF2CFF90105
:1006A00007C08091F10081939F016150710929F089
:1006B0009F018091F2008111F4CF8091E8008B7747
:1006C0008093E80061157105E1F68091E80080FDF6
:1006D0000BC08EB3882351F08EB38530B1F702C0C2
:1006E00081E0089583E0089580E0089582E0089510
:1006F0003ED040D01EBA1092990184E089BD89B5E0
:10070000826089BD09B400FEFDCF8091D800982F8A
:100710009F779093D80080688093D8008091630081
:100720008E7F809363008091D8008F7D8093D80066
:100730008091E0008E7F8093E0008091E1008E7FC9
:100740008093E1008091E20081608093E2008091DB
:10075000E100877F8093E1008091E20088608093D0
:10076000E2000895C5DF81E080939A010895109218
:10077000E20008951092E10008951F920F920FB6C3
:100780000F9211242F933F934F935F936F937F9317
:100790008F939F93AF93BF93EF93FF938091E1006B
:1007A00080FF1BC08091E20080FF17C08091E100B4
:1007B0008E7F8093E1008091E2008E7F8093E20043
:1007C0008091E20080618093E2008091D800806295
:1007D0008093D80019BC1EBA1BDD8091E10084FF14
:1007E00029C08091E20084FF25C084E089BD89B5DD
:1007F000826089BD09B400FEFDCF8091D8008F7D55
:100800008093D8008091E1008F7E8093E1008091F9
:10081000E2008F7E8093E2008091E200816080930D
:10082000E20080919901882311F084E001C081E009
:100830008EBBEDDC8091E10083FF22C08091E2005D
:1008400083FF1EC08091E100877F8093E10082E0FA
:100850008EBB109299018091E1008E7F8093E10020
:100860008091E2008E7F8093E2008091E2008061BF
:100870008093E200A5DD42E060E080E08EDD27D1DC
:100880008091E10082FF0AC08091E20082FF06C0F1
:100890008091E1008B7F8093E100C7DCFF91EF91B5
:1008A000BF91AF919F918F917F916F915F914F9188
:1008B0003F912F910F900FBE0F901F9018950F939F
:1008C0001F93CF93DF9300D0CDB7DEB7EBE9F1E014
:1008D0008091F100819381E0E33AF807C9F78091B4
:1008E0009B0190919C01953009F46FC038F49130D0
:1008F00071F170F0933009F0E1C029C0983009F42B
:10090000A5C0993009F4B4C0963009F0D7C07FC0B3
:10091000803809F4C4C0823809F0D0C080919F01AA
:100920009091A001877099278093E9009091EB0046
:100930001092E9008091E800877F8093E80095FBA2
:10094000882780F98093F1001092F1008AC08823F3
:1009500019F0823009F0B2C08F71823009F09FC067
:1009600080919D0181112BC080919F019091A001E8
:1009700087709927009709F492C08093E90020912D
:10098000EB0020FF8CC020919C01233021F480914A
:10099000EB00806212C09091EB0090619093EB00AD
:1009A00021E030E001C0220F8A95EAF72093EA00A7
:1009B0001092EA008091EB0088608093EB00109227
:1009C000E9008091E800877F4FC0811177C00091D6
:1009D0009D0110919E018091E800877F8093E8003F
:1009E00003DD04C08EB3882309F459C08091E80068
:1009F00080FFF8CFC8018F779927009711F023E087
:100A000001C022E02EBB80688093E30048C080587C
:100A1000823008F053C0AE014F5F5F4F60919F017D
:100A200080919D0190919E0159DC0097C1F1209128
:100A3000E800277F2093E800BC0189819A81BFDD0F
:100A40008091E8008B778093E80029C08038B1F569
:100A50008091E800877F8093E800809199018093DE
:100A6000F1008091E8008E778093E800BDDC17C02C
:100A7000811124C090919D01923088F48091E8000A
:100A8000877F8093E80090939901AEDC8091990173
:100A9000882311F084E001C083E08EBBBADB809133
:100AA000E80083FF0DC08091EB0080628093EB0033
:100AB0008091E800877F8093E80002C0B3DBEFCF2E
:100AC0000F900F90DF91CF911F910F91089508958E
:100AD000CF938EB3882359F0C091E900C77010926C
:100AE000E9008091E80083FDEADEC093E900CF9140
:100AF00008956F927F928F929F92AF92BF92CF9202
:100B0000DF92EF92FF920F931F93CF93DF9300D06A
:100B10001F92CDB7DEB77C01ADB6BEB68091E800BE
:100B200083FFF0C0F701808190E020919F01309118
:100B3000A0012817390709F0E5C080919C01833096
:100B400009F492C030F4813071F0823009F0DAC0DB
:100B5000C1C08A3009F4A7C08B3009F492C0893033
:100B600009F0D0C049C080919B01813A09F0CAC008
:100B70008DB69EB68091E800877F8093E8001A8248
:100B8000198280919D0110919E018B83F70147810D
:100B90008DB79EB7841B91090FB6F8949EBF0FBE08
:100BA0008DBFCDB6DEB6EFEFCE1ADE0A360150E0CD
:100BB00060E070E0C601A4D1412F41508E010F5F6B
:100BC0001F4F9601BE016D5F7F4FC7013ADBF701F2
:100BD000258136812115310529F0478150E0B60184
:100BE000C90185D11092E90069817A81C30192DC43
:100BF0008091E8008B772EC080919B01813209F0B3
:100C000081C08DB69EB68091E800877F8093E80012
:100C10000091A1011091A20170909D0160909E0130
:100C20008DB79EB7801B910B0FB6F8949EBF0FBE79
:100C30008DBFCDB6DEB6EFEFCE1ADE0AB801C60123
:100C400016DD462D41509601672DC7010FDB8091BF
:100C5000E8008E778093E800882D992D0FB6F894E0
:100C60009EBF0FBE8DBF4EC080919B01813A09F09F
:100C700049C08091E800877F8093E800F701808574
:100C800039C080919B018132E9F58091E800877F2E
:100C90008093E80090919D0181E0911101C080E076
:100CA000F70180872EC080919B01813259F5809198
:100CB000E800877F8093E80080919D0190919E01DC
:100CC000882736E0969587953A95E1F7F701928760
:100CD000818717C080919B01813AA1F48091E8003F
:100CE000877F8093E800F7018185928596958795A7
:100CF000969587958093F1008091E8008E77809398
:100D0000E80072DB0FB6F894BEBE0FBEADBE0F900A
:100D10000F900F90DF91CF911F910F91FF90EF9067
:100D2000DF90CF90BF90AF909F908F907F906F900B
:100D30000895CF93DF93FC010896DC0185E0ED0177
:100D400019928A95E9F781E0808784EF91E0928794
:100D50008187228133818481882311F0C4E001C01E
:100D6000C0E0D181C9010BDB4C2F482B426061EC04
:100D70008D2FDF91CF9111CB4F925F926F927F9227
:100D80008F929F92AF92BF92CF92DF92EF92FF929B
:100D90000F931F93CF93DF9300D01F92CDB7DEB791
:100DA0007C01ADB6BEB68EB3843009F07AC0F701CF
:100DB00081818093E9008091E80085FF72C06DB663
:100DC0007EB647818DB79EB7841B91090FB6F89404
:100DD0009EBF0FBE8DBFCDB6DEB6EFEFCE1ADE0AD8
:100DE0001B821A821982460150E060E070E0C60161
:100DF00087D08E010F5F1F4F960140E0BE016D5FEF
:100E00007F4FC7011EDA482EF70121853285232B3B
:100E100031F001E010E023853485232B11F000E050
:100E200010E0F701C580D680C114D10489F0498152
:100E30005A81B601C4014ED055245394009709F449
:100E4000512CF701478150E0B401C60150D001C0D8
:100E5000512C29813A81232BE9F0411004C0511013
:100E600002C000FF17C0F701218532853487238730
:100E700081818093E9008B8181118093F1006981E8
:100E80007A8140E050E0C401FBDA8091E8008E777F
:100E90008093E800862D972D0FB6F8949EBF0FBE65
:100EA0008DBF0FB6F894BEBE0FBEADBE0F900F90B3
:100EB0000F90DF91CF911F910F91FF90EF90DF90F6
:100EC000CF90BF90AF909F908F907F906F905F90EA
:100ED0004F900895FB01DC0104C08D9101908019B1
:100EE00021F441505040C8F7881B990B0895FB012D
:100EF000DC0102C001900D9241505040D8F7089596
:100F0000DC0101C06D9341505040E0F70895F89422
:020F1000FFCF11
:0E0F12000001080000110103000000000000B3
:00000001FF
