:100000008AC00000A3C00000A1C000009FC0000083
:100010009DC000009BC0000099C0000097C0000078
:1000200095C0000093C0000091C000000DC4000006
:100030008DC000008BC0000089C0000087C0000098
:1000400085C0000083C0000081C000007FC00000A8
:100050007DC000007BC0000079C00000D0C100005E
:1000600075C0000073C0000071C000006FC00000C8
:100070006DC000001201100102000008412343007E
:1000800001000102DC0109023E00020100C0320948
:1000900004000001020201000524000110042402F2
:1000A000060524060001070582030800FF09040174
:1000B00000020A0000000705040240000107058352
:1000C000024000010403090432034100720064008D
:1000D000750069006E006F0020002800770077002F
:1000E00077002E00610072006400750069006E00E8
:1000F0006F002E0063006300290000001803410018
:1001000072006400750069006E006F0020005500E9
:100110006E006F00000011241FBECFEFD2E0DEBFE3
:10012000CDBF11E0A0E0B1E0EEE8FEE002C0059036
:100130000D92A831B107D9F712E0A8E1B1E001C0F2
:100140001D92A033B107E1F728D09FC659CF84B7DD
:10015000877F84BF28E10FB6F89420936000109247
:1001600060000FBE87E690E09093CD008093CC00B6
:1001700086E08093CA001092C8002093C900539A69
:100180005A9A8AB180638AB98BB180638BB951D393
:1001900084E085BD5F9A579A0895CF92DF92EF92DF
:1001A000FF920F931F93D3DF8FB7F89420EA31E0CB
:1001B00030932102209320023093230220932202C5
:1001C0008FBF4FB7F8948BE191E090939C0180939F
:1001D0009B0190939E0180939D014FBF7894122FB5
:1001E000032FE82ED92E83E0F82E9FB7F894809144
:1001F00024029FBF803811F180E091E0F9D597FD8E
:100200001DC0E0912002F09121028083E091200244
:10021000F0912102CF010196909321028093200258
:1002200022E08032920711F4118302839FB7F89481
:10023000809124028F5F809324029FBF8FB7F89430
:10024000C0909F018FBFA89904C08C2D813608F4FF
:1002500044C0A89A80919F01882309F15D98F0928B
:1002600018011DC0E0919D01F0919E016191F093F4
:100270009E01E0939D0121E0EB39F20721F4E09229
:100280009D01D0929E019FB7F89480919F0181506B
:1002900080939F019FBF80E091E04ED5CA94CC200F
:1002A00009F780911801882351F08091180181503D
:1002B0008093180180911801882309F45D9A809138
:1002C0001901882351F080911901815080931901FF
:1002D00080911901882309F45C9A9FB7F894809162
:1002E00024029FBF882311F1E0912202F0912302A2
:1002F0009191F0932302E093220282E0E032F8072A
:1003000021F410932202009323022FB7F8948091D6
:1003100024028150809324022FBF8091C80085FF62
:10032000FCCF9093CE005C98F092190180E091E0B0
:1003300051D538D45ACF80E091E0B1C480E091E04B
:1003400043C41F93CF93DF93EC01EC89E150E2307B
:1003500028F4F0E0EA5EFE4F108101C010E08B89C6
:10036000823009F418608D89873031F0883031F09F
:10037000863029F4126003C0146001C01660109228
:10038000C9001092C8001092CA002F853889498987
:100390005A89203081EE380780E0480780E058070E
:1003A00071F0CA01B9019695879577956795605860
:1003B0007B47814E9F4F47D52150304002C020E1FE
:1003C00030E03093CD002093CC001093CA008F858D
:1003D0009889A989BA89803021EE920720E0A20786
:1003E00020E0B20711F480E001C082E08093C800F1
:1003F00088E98093C900DF91CF911F9108951F92E2
:100400000F920FB60F9211242F938F939F93EF9318
:10041000FF938091CE009EB39430F9F4E0919B015C
:10042000F0919C018083E0919B01F0919C01CF01B0
:10043000019690939C0180939B0121E08B39920758
:1004400021F48BE191E0928381839FB7F8948091AE
:100450009F018F5F80939F019FBFFF91EF919F91BD
:100460008F912F910F900FBE0F901F901895FC0148
:10047000858580FF02C05F9808955F9A0895923045
:1004800029F0933041F09130F9F419C02EE330E0B7
:10049000E6E8F0E01DC0813049F0813018F082308C
:1004A00099F408C0E4ECF0E0249107C0E8ECF0E037
:1004B000249103C0ECEFF0E0249130E009C022E188
:1004C00030E0E4E7F0E004C020E030E0E0E0F0E01D
:1004D000DA011196FC93EE93C901089528E030E00B
:1004E00040E003C04F5F220F331F28173907D0F3B6
:1004F000842F8295807F08958093E900EBEEF0E0F1
:10050000808181608083EDEEF0E010826093EC00EA
:1005100040838091EE00881F8827881F08951092DD
:10052000F40080E08093E9001092F0001092E8005F
:100530001092ED009091EB009E7F9093EB008F5F07
:10054000853081F708958091280287FD05C080914C
:10055000E80080FF0DC010C08091E80082FD04C05B
:100560008EB38111F9CF08958091E8008B7707C091
:100570008EB38111ECCF08958091E8008E7780933F
:10058000E800089585E69091EC0090FF05C09091F9
:10059000E80090FF05C01BC09091E80092FD17C0D5
:1005A0009EB39923B1F09EB39530A9F09091EB00E2
:1005B00095FD13C09091E10092FFE5CF9091E1008D
:1005C0009B7F9093E1008150F1F684E0089580E0F4
:1005D000089582E0089583E0089581E008952091D0
:1005E0002E0230912F022617370748F0611571054A
:1005F00039F42091E8002E772093E80001C0B9017A
:10060000FC0190E029C08091E80083FD37C0809113
:10061000E80082FD2DC08EB3882391F18EB3853022
:1006200089F18091E80080FF17C08091F20006C038
:1006300091919093F100615071098F5F611571057F
:1006400011F08830A8F391E0883009F090E08091B3
:10065000E8008E778093E80061157105A1F691118D
:10066000D2CF06C08EB3882359F08EB3853051F0B7
:100670008091E80082FFF6CF80E0089581E0089540
:1006800082E0089583E0089520912E0230912F0298
:100690002617370748F06115710539F42091E800F5
:1006A0002E772093E80001C0B9019C0190E02CC096
:1006B0008091E80083FD3AC08091E80082FD30C05F
:1006C0008EB38823A9F18EB38530A1F18091E80023
:1006D00080FF1AC08091F20009C0F9012F5F3F4FDF
:1006E000E491E093F100615071098F5F611571052C
:1006F00011F0883090F391E0883009F090E080911B
:10070000E8008E778093E8006115710589F69111F4
:10071000CFCF06C08EB3882359F08EB3853051F009
:100720008091E80082FFF6CF80E0089581E008958F
:1007300082E0089583E008956115710529F4209100
:10074000E8002B772093E8009C0121C08091E8000D
:1007500083FD2BC08EB3882371F18EB3853039F1C0
:100760008091E80082FFF2CFF90107C08091F1008B
:1007700081939F016150710929F09F018091F200DE
:100780008111F4CF8091E8008B778093E8006115A8
:100790007105E1F68091E80080FD0BC08EB38823DF
:1007A00051F08EB38530B1F702C081E0089583E047
:1007B000089580E0089582E0089540D042D01EBAA6
:1007C000109226021092250284E089BD89B58260CC
:1007D00089BD09B400FEFDCF8091D800982F9F7786
:1007E0009093D80080688093D800809163008E7FBA
:1007F000809363008091D8008F7D8093D800809192
:10080000E0008E7F8093E0008091E1008E7F8093F6
:10081000E1008091E20081608093E2008091E1003C
:10082000877F8093E1008091E20088608093E200FE
:100830000895C3DF81E08093270208951092E200BB
:1008400008951092E10008951F920F920FB60F9233
:1008500011242F933F934F935F936F937F938F93C5
:100860009F93AF93BF93EF93FF938091E10080FF3D
:100870001BC08091E20080FF17C08091E1008E7F55
:100880008093E1008091E2008E7F8093E20080916E
:10089000E20080618093E2008091D80080628093C2
:1008A000D80019BC1EBA7DD18091E10084FF29C017
:1008B0008091E20084FF25C084E089BD89B5826013
:1008C00089BD09B400FEFDCF8091D8008F7D809353
:1008D000D8008091E1008F7E8093E1008091E2005A
:1008E0008F7E8093E2008091E20081608093E2003D
:1008F00080912602882311F084E001C081E08EBB44
:1009000050D18091E10083FF22C08091E20083FFFB
:100910001EC08091E100877F8093E10082E08EBB62
:10092000109226028091E1008E7F8093E1008091F9
:10093000E2008E7F8093E2008091E20080618093EC
:10094000E200EDDD42E060E080E0D6DD2AD180917A
:10095000E10082FF0AC08091E20082FF06C0809120
:10096000E1008B7F8093E1001CD1FF91EF91BF915B
:10097000AF919F918F917F916F915F914F913F9137
:100980002F910F900FBE0F901F9018950F931F93EC
:10099000CF93DF9300D0CDB7DEB7E8E2F2E08091ED
:1009A000F100819382E0E033F807C9F780912802D3
:1009B00090912902953009F472C038F4913089F190
:1009C00070F0933009F0E4C02CC0983009F4A8C04E
:1009D000993009F4B7C0963009F0DAC082C0803887
:1009E00021F0823809F0D4C003C0909125020FC0D5
:1009F00080912C0290912D02877099278093E900B5
:100A00009091EB0095FB992790F91092E900809165
:100A1000E800877F8093E8009093F1001092F10046
:100A20008AC0882319F0823009F0B2C08F718230F9
:100A300009F09FC080912A0281112BC080912C0265
:100A400090912D0287709927009709F492C08093A6
:100A5000E9002091EB0020FF8CC020912902233077
:100A600021F48091EB00806212C09091EB009061C4
:100A70009093EB0021E030E001C0220F8A95EAF765
:100A80002093EA001092EA008091EB008860809346
:100A9000EB001092E9008091E800877F4FC0811140
:100AA00077C000912A0210912B028091E800877F85
:100AB0008093E80048DD04C08EB3882309F459C050
:100AC0008091E80080FFF8CFC8018F7799270097C1
:100AD00011F023E001C022E02EBB80688093E30088
:100AE00048C08058823008F053C0AE014F5F5F4F5E
:100AF00060912C0280912A0290912B02C0DC009719
:100B0000C1F12091E800277F2093E800BC01898192
:100B10009A81BADD8091E8008B778093E80029C044
:100B20008038B1F58091E800877F8093E80080915C
:100B300026028093F1008091E8008E778093E80090
:100B400002DD17C0811124C090912A02923088F4EE
:100B50008091E800877F8093E80090932602F3DC81
:100B600080912602882311F084E001C083E08EBBCF
:100B7000E2DB8091E80083FF0DC08091EB00806292
:100B80008093EB008091E800877F8093E80002C0AB
:100B9000D5DBEFCF0F900F90DF91CF911F910F9189
:100BA00008950895CF938EB3882359F0C091E9003A
:100BB000C7701092E9008091E80083FDE7DEC093E2
:100BC000E900CF9108950895CF93DF93EC018091D0
:100BD000E80083FF61C0888190E020912C02309171
:100BE0002D022817390709F057C080912902813258
:100BF00059F020F4803209F04FC019C0823269F1F7
:100C0000833209F049C038C080912802813A09F046
:100C100043C08091E800877F8093E80067E070E040
:100C2000CE010F96DCDC8091E8008B7713C08091B9
:100C30002802813289F58091E800877F8093E8005F
:100C400067E070E0CE010F9677DDCE017ADB809110
:100C5000E8008E778093E8001FC0809128028132DF
:100C6000D9F48091E800877F8093E80080912A0280
:100C70008D87CE01FCDB0DC080912802813261F4AA
:100C80008091E800877F8093E80060912A02CE017E
:100C90009ADFDF91CF9157CCDF91CF9108950F93D9
:100CA0001F93CF93DF93EC010D96FC0189E0DF01E8
:100CB0001D928A95E9F72A813B818C81882311F066
:100CC00014E001C010E00981C90108DC412F482B64
:100CD000426061E8802F10DC882341F12E813F8142
:100CE0008885882311F014E001C010E00D81C9014E
:100CF000F5DB412F482B426060E8802FFDDB882325
:100D0000A9F02A853B858C85882311F014E001C069
:100D100010E0C985C901E2DB412F482B426061EC3C
:100D20008C2FDF91CF911F910F91E6CB80E0DF9167
:100D3000CF911F910F910895CF93C62F2EB32430DA
:100D4000E9F4FC014785508961897289452B462B5E
:100D5000472BA1F081818093E9008091E80085FF15
:100D600004C0C093F10080E00AC08091E8008E7753
:100D70008093E80007DC8823A1F301C082E0CF91D3
:100D800008952EB3243021F5FC01478550896189EF
:100D90007289452B462B472BD9F081818093E9003E
:100DA0008091F200811102C080E008959091E800E6
:100DB0008091E8008E778093E80095FDF5CFE2DB27
:100DC000811107C09091E8009E779093E800089504
:100DD00082E008952EB3243051F4FC0147855089F8
:100DE00061897289452B462B472B09F0CACF08959C
:100DF0002EB3243019F02FEF3FEF23C0FC014785BD
:100E0000508961897289452B462B472BA1F3858137
:100E10008093E9008091E80082FFEDCF8091F2009D
:100E2000882321F02091F10030E002C02FEF3FEF46
:100E30008091F200811105C08091E8008B7780934A
:100E4000E800C9010895A1E21A2EAA1BBB1BFD01EF
:100E50000DC0AA1FBB1FEE1FFF1FA217B307E40799
:100E6000F50720F0A21BB30BE40BF50B661F771FF1
:100E7000881F991F1A9469F76095709580959095D1
:0E0E80009B01AC01BD01CF010895F894FFCF96
:100E8E0000034000000440000002080000000000C3
:080E9E000000000000003020FC
:00000001FF
